:020000020000FC
:100000000FEF0DBF18E01EBF3F065B4F666D7D070B
:100010007F67777C585E797100E80093610003E0A8
:10002000009361000FEF0AB900E00BB90FE707B9C1
:1000300000E008B900E204B90FE105B900E000935F
:10004000C10020E0189B0E942E00199B0E943600E0
:10005000E8E0F0E0E20F04910BB9F4CF0E943E001B
:10006000189BFCCF239524FD2FE008950E943E00AD
:10007000199BFCCF2A9527FD20E0089515E00AEF93
:0A0080000A95F1F71A95D9F70895D3
:00000001FF
