:020000020000FC
:100000000FEF0DBF18E01EBF3F065B4F666D7D070B
:100010007F67777C585E797100E80093610003E0A8
:10002000009361000FEF0AB900E00BB90FE707B9C1
:1000300000E008B900E204B90FE105B900E000935F
:10004000C1002FE030E06FE00E945F0054E633957E
:10005000361304C00E94400034FD30E0A8990E948D
:100060006400503099F338B9189B0E944800199BDE
:100070000E945000E8E0F0E0E20F04910BB9EECFEF
:1000800030E0622F2D9B02C02D9808952D9A08957F
:100090000E945800189BFCCF239524FD2FE0089563
:1000A0000E945800199BFCCF2A9527FD20E0089557
:1000B00015E00AEF0A95F1F71A95D9F7089505E0CA
:1000C00005BD0BEE06BD08950BEE06BDA89A5A9528
:0200D000089591
:00000001FF
