:020000020000FC
:100000000FEF0DBF18E01EBF3F065B4F666D7D070B
:100010007F67777C585E797100E80093610003E0A8
:10002000009361000FEF0AB900E00BB90FE707B9C1
:1000300000E008B900E204B90FE105B900E000935F
:10004000C1002FE030E00E945D0054E6339532138A
:1000500004C00E943F0034FD30E0A8990E94620075
:10006000503099F338B9189B0E944600199B0E94A2
:100070004E00E8E0F0E0E20F04910BB9EECF30E083
:100080002D9B02C02D9808952D9A08950E94560028
:10009000189BFCCF239524FD2FE008950E94560065
:1000A000199BFCCF2A9527FD20E0089515E00AEF63
:1000B0000A95F1F71A95D9F7089505E005BD06EF01
:0E00C00006BD089506EF06BDA89A5A9508954C
:00000001FF
